:020000040800F2
:10000000980B002089010008C71A0008B3180008DF
:10001000C51A0008D5030008171C000800000000DE
:10002000000000000000000000000000CB1A0008E3
:100030000F04000800000000C91A0008CD1A0008CB
:10004000A3010008A3010008A3010008A301000800
:10005000A3010008A3010008A3010008A3010008F0
:10006000A3010008A3010008A3010008D9030008A8
:10007000A3010008A3010008A3010008A3010008D0
:10008000A3010008A3010008A3010008A3010008C0
:10009000A3010008A3010008A3010008A3010008B0
:1000A000A3010008A3010008A3010008A3010008A0
:1000B000451B0008A301000800000000A301000880
:1000C000A30100080000000000000000A3010008D8
:1000D00000000000A3010008A301000800000000C8
:1000E000A3010008A3010008A301000800F002F822
:1000F00000F03AF80AA090E8000C82448344AAF188
:100100000107DA4501D100F02FF8AFF2090EBAE885
:100110000F0013F0010F18BFFB1A43F0010318473B
:100120001421000034210000103A24BF78C878C19F
:10013000FAD8520724BF30C830C144BF04680C60ED
:10014000704700000023002400250026103A28BF35
:1001500078C1FBD8520728BF30C148BF0B60704739
:100160001FB51FBD10B510BD00F058F81146FFF7C0
:10017000F7FF01F061FD00F076F803B4FFF7F2FF3E
:1001800003BC00F07DF8000009488047094800479B
:10019000FEE7FEE7FEE7FEE7FEE7FEE7FEE7FEE737
:1001A000FEE7FEE704480549054A064B7047000094
:1001B000411B0008ED00000898050020980B002066
:1001C00098070020980700204FF0000200B5134662
:1001D00094469646203922BFA0E80C50A0E80C5067
:1001E000B1F12001BFF4F7AF090728BFA0E80C5018
:1001F00048BF0CC05DF804EB890028BF40F8042B11
:1002000008BF704748BF20F8022B11F0804F18BF7D
:1002100000F8012B7047704770477047754600F033
:100220002BF8AE4605006946534620F00700854688
:1002300018B020B5FFF7B6FFBDE820404FF000062C
:100240004FF000074FF000084FF0000B21F00701BE
:10025000AC46ACE8C009ACE8C009ACE8C009ACE801
:10026000C0098D46704710B50446AFF300802046A4
:10027000BDE81040FFF781BF0048704738050020F7
:1002800001491820ABBEFEE72600020070470000BF
:1002900070B5044600688168C943C90717D18168F1
:1002A00021F00101816000F0BBFC05460AE000BFBF
:1002B00000F0B6FC401B022804D920688068C043C7
:1002C000C00706D020688068C043C007F0D0002077
:1002D00070BDA06A40F01000A062E06A40F001002A
:1002E000E062012070BD10B50146406A826A12F0DA
:1002F000500F05D0006A026BBDE810400846104759
:10030000816A41F40071816201688968C1F34241E8
:1003100007290CD1017B51B9816A21F48071816276
:10032000816AC90403D4816A41F00101816200F04D
:10033000EFF810BD10B5406A816A41F0400181625A
:10034000C16A41F00401C16200F011F910BD10B59D
:10035000406A00F00BF910BDF8B50026044600967F
:1003600000688168C943C9072DD0816841F0010147
:100370008160164816490068B0FBF1F000E0401EAD
:1003800000900028FBD100F04BFC054616E000BFB2
:1003900000F046FC401B022810D920688068C0434A
:1003A000C0070BD0A06A40F01000A062E06A40F0E5
:1003B0000100E06284F824600120F8BD20688068B4
:1003C000C043C007E4D10020F8BD00003000002089
:1003D00040420F00FEE70000014800F027BA00008D
:1003E0006404002030B590F840500124AC40C56B47
:1003F0006C60046863604368102B036803D09960E5
:100400000068C26030BD9A600068C16030BD70474E
:1004100072B6FEE7F8B50024009490F82420254633
:10042000012A12D0012280F824204A681F23072ABB
:100430000DD20668776B521E02EB820293409F43F7
:100440000B6893401F43776319E00220F8BD0668EC
:100450000D2A0AD2376BD21F02EB820293409F43D0
:100460000B6893401F43376309E0F76A0D3A02EBCC
:10047000820293409F430B6893401F43F7620A68D0
:10048000072306680A2A0AD3F7680A3A02EB4202EF
:1004900093409F438B6893401F43F76008E03769A0
:1004A00002EB420293409F438B6893401F433761A6
:1004B0000A68102A01D0112A20D1124B02689A42F0
:1004C00017D193681B0219D4936843F40003936017
:1004D0000968102912D10C490C4A0968B1FBF2F1E4
:1004E00001EB8101490000E0491E00910029FBD188
:1004F00004E0816A41F020018162012480F82450E7
:100500002046F8BD002401403000002040420F008A
:1005100010B50F4800F02CF80E4C80B220826169B3
:10052000216201F067FD00220B4B01F077FD0022F4
:100530000A4B01F007FC0022094B01F06FFD094A4C
:10054000094B01F0FFFB01F0CBFB606110BD000027
:10055000340400200000002000001440E0FFEF40C1
:1005600000805240D7A3703D0AD7F33F70477047D1
:100570000068C06C704700002DE9F0414FF00007A3
:1005800004003D467ED0A06A002628B9E66284F8C1
:100590002460204600F07EF82046FFF779FEA16A2D
:1005A00001F01001014304D0A06A40F01000A062E5
:1005B00068E0A16A21F4885141F00201A1626268F9
:1005C000E169237B0A4347EA43010A43A1684FF4E8
:1005D0008077B94208D0012906D0002194F814C0D0
:1005E000BCF1010F02D00AE03946F7E7F3B1A36A84
:1005F00043F02003A362E36A43F00103E36223684C
:10060000D3F804C02CF4694C4CEA010CC3F804C0C4
:1006100023689968DFF870C001EA0C011143996002
:10062000A168B9420BD0012909D00CE0DFF85CC009
:10063000A3690CEB43330B4343F40061DFE7218AEA
:100640000D05A5F580152168CB6A23F470032B43B3
:10065000CB62216889680E4B1940914208D1E6624D
:10066000A16A21F0020141F00101A162BDE8F0811F
:10067000A06A20F0020040F01000A062E06A40F0A2
:100680000100E0620120F1E7FDF7E1FF00E0FFFF7C
:10069000FE0E1FFF70B586B0002506460095019539
:1006A000029503950068194988422DD11849886937
:1006B00040F400708861886900F4007004908869D3
:1006C00040F0040088618869694600F004000490E5
:1006D0000320009001900F4800F0B8F90F4C0E482D
:1006E000C4E900058020C4E9025040002061800078
:1006F00060612020C4E90605204600F041F908B1F8
:10070000FFF786FE3462666206B070BD00240140C9
:10071000001002400008014008000240640400206C
:100720002DE9F047894604463B4900683B4F0E1DC2
:100730009046884201D0B84207D1306810F4702F3B
:1007400003D001252846BDE8F08794F8240001284D
:100750000CD0012084F824002046FFF7FDFD0500A1
:100760004FF0000004D084F82400EBE70220EAE711
:10077000A16A40F60162914341F48071A16221684F
:10078000B94218D1326812F4702F14D0A16A41F422
:100790008011A1623168490505D5A16A21F4005193
:1007A00041F48051A162A16AC9040AD5E16A21F02D
:1007B0000601E16206E0A26A22F48012A2624968A0
:1007C000E9E7E06284F82400216A15488862216A1A
:1007D0001448C862216A1448086321686FF0020057
:1007E00008602068816841F4807181602168434617
:1007F0004A464C31206A00F0F1F820688168C1F364
:1008000042410729816803D041F48011816099E752
:1008100041F4A001FAE70000002401400028014053
:10082000E70200084F030008350300082DE9F05FD8
:10083000C16B0C6801680B68D0F840C0042202FA52
:100840000CF2494DDFF824A1494E4A4FDFF828B198
:10085000DFF828E122422CD05A072AD50A689206EE
:1008600003D40A6822F004020A600168A94201D197
:10087000042219E0514501D1402215E0B14202D1D4
:100880004FF4806210E0B94202D14FF480420BE095
:10089000594502D14FF4802206E0714502D14FF450
:1008A000800201E04FF080622F4908394A60C16A36
:1008B0003BE04FF0020808FA0CF818EA040F4FF07A
:1008C00000094FF0010235D05FEA837832D50B681A
:1008D0009B0605D40B6823F00A030B6080F82120E7
:1008E0000168A94201D1022219E0514501D120221B
:1008F00015E0B14202D14FF4007210E0B94202D1CA
:100900004FF400520BE0594502D14FF4003206E09B
:10091000714502D14FF4001201E04FF0007212490C
:1009200008394A6080F82090816A00291AD0BDE811
:10093000F05F0847082505FA0CF5254212D01B0781
:1009400010D50B6823F00E030B6090F84010C36BBA
:1009500002FA01F15960826380F8212080F820902A
:10096000016BE2E7BDE8F09F080002401C00024076
:100970003000024044000240580002406C00024037
:1009800030B528B308C8134914221944B1FBF2F159
:100990008900C16310498163022141771A6843F6D7
:1009A000F0718A43D0E900142143D0E902452C4379
:1009B000214304692143446921438469214311434C
:1009C000196000214163012242770177084630BD5A
:1009D000012030BDF8FFFDBF0000024070B50446A5
:1009E00090F82000002501280CD0012084F8200078
:1009F00094F821600020012E06D084F82000022502
:100A0000284670BD022070BD022684F82160A063D4
:100A10002068066826F0010606602046FFF7E2FC23
:100A2000E06A00282068016802D041F00E0106E06B
:100A300021F0040101602068016841F00A010160B1
:100A40002068016841F001010160D9E72DE9F84F04
:100A5000DFF89C91002409F1040A0AF1040B2346F3
:100A60000F270BF1040EBBE00125A5402A40AA4246
:100A700076D1DFF880C14E68A6EB0C0866452BD016
:100A80000DDC032E34D005DC36B3012E19D0022E36
:100A90002FD11BE0112E16D0122E2AD119E0B8F555
:100AA000881F19D006DCB8F5803F15D0B8F5801F37
:100AB0001FD111E0B8F5001F0ED0B8F5041F18D1F2
:100AC0000AE0CB6815E0CB681B1D12E0CB68083349
:100AD0000FE0CB680C330CE08B682BB1012B4FF08F
:100AE000080303D0456104E0042302E0056100E04F
:100AF0000023FF2A01D8064601E000F104064FEA70
:100B0000840501D9A5F12005D6F8008007FA05FC77
:100B100028EA0C0803FA05F548EA0508C6F800803B
:100B20004D68ED005BD5344DAE6946F00106AE610F
:100B3000AD6924F0030605F0010500952F4D06EB85
:100B4000050CDCF80850A607360F07FA06F825EA68
:100B50000805DFF8AC80404503D14FF0000810E0F5
:100B60003DE0DFF8A080404502D14FF0010808E0E9
:100B7000DFF89480404502D14FF0020801E04FF0C9
:100B8000030808FA06F848EA0508CCF808804D681A
:100B9000D9F80060ED034D4601D5164300E09643B9
:100BA0002E604D68DAF80060AD03554601D5164356
:100BB00000E096432E604D68DBF80060ED025D4674
:100BC00001D5164300E096432E604D68DEF80060C4
:100BD000AD02754601D5164300E096432E60641CB5
:100BE0000A6832FA04F57FF43FAFBDE8F88F0000E1
:100BF00000040140000011100010024000000140FC
:100C000000080140000C01400010014080680840CD
:100C100000D0012070470AB1016170470904FBE769
:100C20000148806870470000240000200248816865
:100C3000027811448160704724000020074810B5F5
:100C4000016841F010010160032000F075F80F20E9
:100C500000F006F800F024F8002010BD002002404B
:100C600070B50D4D04464FF47A712878B1FBF0F061
:100C70000A490968B1FBF0F000F042FB48B9102CBA
:100C800007D200222146501E00F036F800206C608A
:100C900070BD012070BD0000240000203000002045
:100CA0000C4808B5816941F001018161816901F059
:100CB00001010091C16941F08051C161C06900F03A
:100CC000805000900448416821F0E06141F080616B
:100CD000416008BD0010024000000140002809DB0F
:100CE00000F01F02012191404009800000F1E02046
:100CF000C0F8001170470000F0B40E4B1B680C46A2
:100D0000C3F30223C3F10705042D00D90425191DDF
:100D1000072901D2002300E0DB1E012606FA05F1B7
:100D2000491E214099409E40761E16403143F0BC3A
:100D300000F072BF0CED00E0064900F00702086801
:100D40004FF6FF03184040EA0220034A10430860B0
:100D5000704700000CED00E00000FA052DE9F843B3
:100D600005460078354CC00754D0E0690026C00025
:100D700008D4E06940F08050E061E069012600F0AD
:100D8000805000902E480168C90512D40168804641
:100D900041F480710160FFF743FF074605E000BFA3
:100DA000FFF73EFFC01B642823D8D8F80000C00519
:100DB000F6D5206A10F4407021D0A98801F4407162
:100DC00081421CD0206A1F49012220F440700A6031
:100DD00000220A602062C00711D0FFF721FF0746FA
:100DE00041F2883808E000BFFFF71AFFC11B4145F8
:100DF00002D90320BDE8F883206A8007F4D5206A71
:100E0000696820F44070084320621EB1E06920F058
:100E10008050E0612878800705D56068A96820F4D3
:100E20004040084360602878C00605D56068E968DE
:100E300020F48000084360600020DBE700100240DF
:100E400000700040400442422DE9F0470F46050083
:100E500061D0434E306800F00700B84209D23068D4
:100E600020F0070038433060306800F00700B842D7
:100E700051D128683B4C810712D5400703D56068E3
:100E800040F4E06060602878000703D5606840F4B3
:100E9000605060606068A96820F0F00008436060FE
:100EA0002878C00728D06868012810D02168022857
:100EB00010D0890700292EDA616821F0030101436F
:100EC0006160FFF7ADFE804641F288390DE0216890
:100ED0008903EFE78901EDE7FFF7A2FEA0EB080128
:100EE000494502D90320BDE8F0876068696800F0D1
:100EF0000C00B0EB810FEFD1306800F00700B84272
:100F00000BD9306820F0070038433060306800F0BB
:100F10000700B84201D00120E5E72878400705D551
:100F20006068E96820F4E0600843606028780007A2
:100F300006D56068296920F4605040EAC10060600D
:100F400000F018F86168084AC1F30311515CC84009
:100F50000649086006480068FFF782FE0020C2E7E5
:100F60000020024000100240222200083000002031
:100F70002800002012A185B00FC98DE80F0014A031
:100F8000144A006804905168134801F00C03042BC4
:100F900010D0082B0ED1C1F38343C9031DF8030001
:100FA0000AD5516804AAC1F34041515C0A4A504332
:100FB000B0FBF1F005B0704708494843FAE700007C
:100FC00002030405060708090A0B0C0D0E0F10108A
:100FD000010200000010024000127A0000093D00EA
:100FE0002DE9F84F040070D02078C04DC00749D0DB
:100FF0006868C0F38100012807D06868C0F38100E9
:10100000022809D16868C00306D52868800339D54D
:1010100060680028E7D035E06068B0F5803F0BD00D
:1010200010B1B0F5A02F11D0286820F480302860CE
:10103000286820F4802002E0286840F4803028608E
:10104000606890B1FFF7ECFD06460AE0286840F4BE
:1010500080202860F0E700BFFFF7E2FD801B6428D6
:1010600073D828688003F7D50CE0FFF7D9FD064652
:1010700005E000BFFFF7D4FD801B6428F0D8286886
:101080008003F7D420789A4E80074FF001094FF083
:10109000000839D5686810F00C0F07D06868C0F3F5
:1010A0008100022809D16868C00306D42868800737
:1010B00014D52069012808D110E02069B0B1C6F824
:1010C0000090FFF7ADFD074605E00AE1FFF7A8FD38
:1010D000C01B0228C4D828688007F7D52868616932
:1010E00020F0F80040EAC10028600DE0C6F800805A
:1010F000FFF796FD074604E0FFF792FDC01B0228AC
:1011000023D828688007F7D4207800072CD57948A1
:10111000A169D9B1C0F80090FFF782FD074604E04D
:10112000FFF77EFDC01B02280FD8686A8007F7D53D
:1011300071484FF4FA510068B0FBF1F0009000BF25
:101140000098411E0091FAD20EE080E0C0F80080C5
:10115000FFF766FD074604E0FFF762FDC01B0228AB
:1011600075D8686A8007F7D42078400760D5E869A9
:101170000027C00008D4E86940F08050E861E869C1
:10118000012700F0805000905C480168C90513D425
:101190000168834641F480710160FFF741FD82469A
:1011A00006E000BFFFF73CFDA0EB0A0064284ED824
:1011B000DBF80000C005F5D5E06801280AD008B1C9
:1011C000052813D0286A20F001002862286A20F040
:1011D000040002E0286A40F001002862E06841F261
:1011E000883B98B1FFF71CFD82460BE0286A40F06F
:1011F00004002862EEE700BFFFF712FDA0EB0A0132
:1012000059455AD8286A8007F6D50CE0FFF708FD43
:10121000824605E0FFF704FDA0EB0A0159454CD8D2
:10122000286A8007F6D41FB1E86920F08050E86191
:10123000E06988B36968C1F38101022944D00228BA
:10124000C6F8608004D0FFF7EBFC044638E034E0D9
:10125000FFF7E6FC074604E0FFF7E2FCC01B0228AC
:101260002BD828688001F7D4206AB0F5803F05D1DB
:101270006868A16820F4003008436860D4E9080178
:101280000843696821F4741108436860C6F86090E7
:10129000FFF7C6FC044606E025E000BFFFF7C0FCF0
:1012A000001B022809D828688001F7D51BE000BF81
:1012B000FFF7B6FC001B022802D90320BDE8F88F17
:1012C00028688001F4D40EE00128F7D06868226A0B
:1012D00000F48031914204D1616A00F470108842B8
:1012E00001D00120EAE70020E8E7000000100240FA
:1012F0000000424280044242300000200070004062
:1013000010B5401EB0F1807F01D3012010BD4FF019
:10131000E02460610F21601700F07EFC0020A061D6
:1013200007202061002010BD7047704770B590F80D
:101330003C20012A23D0012480F83C40022280F87E
:101340003D2003685A689D6822F070060A6832439F
:101350005A600C4B02689A4205D0B2F1804F02D01D
:10136000094B9A4204D1496825F0800319439160E2
:1013700080F83D40002180F83C10084670BD0220F6
:1013800070BD0000002C01400004004010B50400B6
:1013900003D094F83D0010B107E0012010BD0020FB
:1013A00084F83C00204600F01FF8022084F83D003D
:1013B000211D206800F0CCFB012084F8460084F851
:1013C0003E0084F83F0084F8400084F8410084F82F
:1013D000420084F8430084F8440084F8450084F80F
:1013E0003D00002010BD000008B501681048B1F1B3
:1013F000804F0BD00F4A914207D1C16941F00201E1
:10140000C161C06900F00200009008BDC16941F0EF
:101410000101C161C069002200F001000090114685
:101420001C20FFF769FCBDE808401C20FFF756BCF4
:10143000001002400004004090F83D10012901D046
:1014400001207047022180F83D1000680949884258
:1014500005D0B0F1804F02D00749884204D181689D
:1014600001F00701062903D0016841F00101016084
:1014700000207047002C01400004004090F83D100F
:10148000012901D001207047022180F83D10016838
:10149000CA6842F00102CA6000680A49884205D061
:1014A000B0F1804F02D00849884204D1816801F030
:1014B0000701062903D0016841F001010160002005
:1014C00070470000002C01400004004070B5044645
:1014D00090F83C00012817D0012584F83C500220E8
:1014E00084F83D002068826822F0770222F47F426F
:1014F00082600868502830D00DDC20284DD005DCF3
:1015000098B310283BD148E0022070BD302844D069
:10151000402834D139E0602828D0702806D0B0F5B2
:10152000805F2CD0B0F5005F29D10AE0CB68D1E90B
:101530000121206800F03AFB2068816841F07701C2
:1015400009E0CB68D1E90121206800F02FFB206879
:10155000816841F48041816011E0CA68496820686F
:1015600000F036FB5021206807E016E0CA684968A1
:10157000206800F03EFB6021206800F021FB84F829
:101580003D50002084F83C0070BDCA68496820685E
:1015900000F01EFB40212068EFE72268014610465C
:1015A000EBE7704770B50446006801694FF000052D
:1015B000C943890715D4C168C943890711D4E91EF5
:1015C000016101202077206880698007204602D0D1
:1015D000FFF7E7FF04E000F098F8204600F096F8E7
:1015E000257720680169C943490717D4C168C943F1
:1015F000490713D46FF004010161022020772068AD
:10160000806910F4407F204602D0FFF7CAFF04E053
:1016100000F07BF8204600F079F825772068016912
:10162000C943090716D4C168C943090712D46FF02A
:1016300008010161042020772068C06980072046E6
:1016400002D0FFF7AEFF04E000F05FF8204600F0A4
:101650005DF8257720680169C943C90617D4C168B8
:10166000C943C90613D46FF0100101610820207727
:101670002068C06910F4407F204602D0FFF791FF38
:1016800004E000F042F8204600F040F8257720689A
:101690000169C943C90708D1C168C943C90704D151
:1016A000891E0161204600F033F820680169C943B2
:1016B000090609D4C168C943090605D46FF0800141
:1016C00001612046FFF730FE20680169C9434906E1
:1016D00009D4C168C943490605D46FF040010161CE
:1016E000204600F0E5F820680169C94389060BD45B
:1016F000C168C943890607D46FF020010161204603
:10170000BDE87040FFF711BE70BD70477047000024
:1017100070B50068B0F1804F72D1624C4021A06971
:10172000401CA0616048FFF771FAE070012802D107
:10173000A078C043A070A069322861D10021A161C6
:10174000E069401CE061642800DBE1612378E06926
:1017500001229842554DA07828DD0028607807D0F6
:10176000072860D2DFE800F05F0C1E1E0F0F140088
:10177000072858D2DFE800F0570C070716110400BD
:10178000A172E17248E0A172E17222E0E1734DE0E2
:10179000A172E1722173627340E0A272E17221735F
:1017A00061731FE0A172E172217325E00028607867
:1017B00007D0072837D2DFE800F0362D18290F337D
:1017C000240007282FD2DFE800F02E1C2B07211061
:1017D00025002173617303E0A172E17221736273CA
:1017E000A273D3E7A173E1734FE0A272E172217398
:1017F0006173A173E27348E06173A173E27315E052
:101800004FE0A272E17221736273EBE7A172E172A1
:101810002273F1E7A172E27222736173A173B5E7DB
:10182000A172E272D5E7A07A01282ED00022012110
:101830002846FFF7F0F9E07A012828D0002202219B
:101840002846FFF7E8F9207B012822D00022042156
:101850002846FFF7E0F9607B01281CD00022082110
:101860002846FFF7D8F9A07B012816D000221021C6
:101870002846FFF7D0F9E07B012810D00022284647
:10188000BDE870402021FFF7C6B90122CFE7012251
:10189000D5E70122DBE70122E1E70122E7E70122A8
:1018A000EDE770BD0000002000100140000C014079
:1018B0007047FEE73EB5002410480094019402945E
:1018C0000D498460016004730475012505614FF4BE
:1018D00000214460C161FEF74FFE08B1FEF798FD9C
:1018E000CDE90045694605480294FEF793FD0028BE
:1018F00001D0FEF78DFD3EBD0024014034040020E0
:10190000094808B5416941F001014161406900227F
:1019100000F00100009011460B20FFF7EDF9BDE843
:1019200008400B20FFF7DAB9001002402DE9F04122
:1019300086B000242B48009401940294039481699A
:1019400041F010018161816901F010010491816908
:1019500041F020018161816901F0200104918169D8
:1019600041F004018161816901F004010491816900
:1019700041F00801816180691B4F00F0080004906C
:10198000002248F204013846FFF745F9DFF85C8091
:1019900000223F214046FFF73EF9012291033846DD
:1019A000FFF739F94720CDE9000469461048029451
:1019B000FFF74CF84CF2040001250226CDE90005A2
:1019C000CDE9024669463846FFF740F83F20CDE9A9
:1019D0000005CDE9024669464046FFF737F806B0F4
:1019E000BDE8F0810010024000080140000C0140F9
:1019F0000010014010B586B00024174800940194EF
:101A00000294039404944FF08041059401600521F1
:101A1000C0E9011440F2E731C0E90314802181617B
:101A2000FFF7B4FC08B1FEF7F3FC4FF480500090D0
:101A300069460948FFF74AFD08B1FEF7E9FC04943E
:101A400004A905480594FFF771FC002801D0FEF7B2
:101A5000DFFC06B010BD0000A804002010B586B061
:101A600000241748009401940294039404941349A9
:101A7000059401600521C0E901146421C0E9031443
:101A80008461FFF783FC08B1FEF7C2FC4FF480507D
:101A9000009069460A48FFF719FD08B1FEF7B8FC47
:101AA0002020CDE9040404A90548FFF73FFC0028E5
:101AB00001D0FEF7ADFC06B010BD000000040040F0
:101AC000F0040020FEE7FEE770477047FFF7AEB86E
:101AD00030B593B028216846FEF776FB14210AA89A
:101AE000FEF772FB002401200F941094119401045E
:101AF00012948DE8130004908004CDE908100225AB
:101B000007956846FFF76CFA08B172B6FEE70F203A
:101B1000CDE90A058020CDE90C0400210AA80E9425
:101B2000FFF792F908B172B6FEE70FA80F9511946E
:101B3000FFF714F9002801D072B6FEE713B030BDEC
:101B4000704700000148FFF72DBD0000A8040020E9
:101B500070B50268134B144C4FF08046984203D086
:101B6000B04201D0A04203D122F070054A682A4356
:101B7000984203D0B04201D0A04203D122F4407475
:101B8000CA6822434C6922F08002224302608A68BC
:101B9000C2620A688262984201D109690163012127
:101BA000416170BD002C01400004004010B5846804
:101BB00042EA032224F47F440A432243826010BD98
:101BC000826822F070020A4342F007018160704788
:101BD00010B5036A046A24F001040462846924F0E5
:101BE000F00444EA021423F00A020A438461026208
:101BF00010BD10B5036A23F0100303628369046A01
:101C000023F4704343EA023224F0A00343EA0111B3
:101C10008261016210BDFEE70907090E002804DB9E
:101C200000F1E02080F80014704700F00F0000F190
:101C3000E02080F8141D7047FFF700F8FFF748FF19
:101C4000FFF774FEFFF7D6FEFFF75AFEFFF732FEEE
:101C5000FFF704FF1C48FFF711FC4FF480721B498B
:101C60001B48FEF75DFD1B48FFF7E6FB1A4F0125F9
:101C70001A4C002601213846FEF7C8FFE071022108
:101C80003846FEF7C3FF207204213846FEF7BEFF38
:101C90006072E179012910D02671217A01290ED0D4
:101CA000667101280DD0A67120796179800000EB62
:101CB0004100A17908446070DCE72571EDE76571AA
:101CC000EFE7A571F0E70000A80400203400002031
:101CD00034040020F0040020001001400000002027
:101CE00021F00042A2F16052B2F5801F01F00043E2
:101CF00028BFD2F17F6C0BD95FEA001C43EAC20215
:101D000042EB507018BF704728BF20F001007047A9
:101D1000B2F5801FBCBF184670474FEA410C1CF556
:101D2000001F02D2084600F077BA70B500F020FA22
:101D300000000089FFF7F6BF4FF00040A0F58000DB
:101D4000704700002DE9C04130B4DFF8A0C23CEA82
:101D5000111418BF3CEA131400F0EC8081EA03056B
:101D60001CEA111444EAD57418BF1CEA131500F0DC
:101D7000C780A4EB05044FF0004545EAC12145EAC0
:101D8000C32341EA505143EA525304F17F7499420C
:101D900004F500344FEAC0204FEAC22208BF904247
:101DA00000F09C804FEA13650FF24016765D4FEA13
:101DB000134506FB05F7C7F1807706FB07F74FEAE7
:101DC000D737A7FB03687642C8F58038A7FB06CE55
:101DD00038BFA8F1010807FB08E64FF0000EA6FB8C
:101DE000028CE6FB03CEDCF1000CCEF1004E38BFD6
:101DF000AEF1010EA6FB0C584FF000074FF00005A6
:101E0000E6FB0E87A1FB08C6A0FB07CE16EB0E066D
:101E100045F10005E1FB076515F1E04E7EBFA4F535
:101E200080345FEA46066D4116F1800745F10005F2
:101E30004FEA17274FEA066647EA0567A6F1DE462E
:101E4000B6F1805F4FEA15251FD9384624F0010C02
:101E500005EBC471BCF1FE6F01EB0C1102D8F0BCB4
:101E6000BDE8008124425CBF01F5801E9EEAC47F6C
:101E700002D4F0BCBDE80081244238D4F0BCA1F10A
:101E8000C041BDE8004100F0C1B94FEAD22242EAA8
:101E900043524FEAD323A7FB02864FEAD02040EA01
:101EA000415007FB03661EEA0E0F4FEAD12105FBE6
:101EB000026658BFA6EB0056B6EB00564FEA520E2C
:101EC0004EEAC37E18EB0E0E56EB530EBDD518EB43
:101ED00002085E417F1C55F10005B6E74FF48015FE
:101EE0004FF000074FF000064FF00008ADE7F0BCE0
:101EF0004FF0000001F1C04101F00041BDE8008158
:101F000011EA0C1F0CEA131500D00CE013EA0C1FA9
:101F100000F025804FF00000F0BC81EA030101F0E1
:101F20000041BDE80081F0BCBDE8004181EA030149
:101F300000F06CB9F0BCBDE8004170B500F018F9D4
:101F4000097EFC3E00F007B881EA03014FF0000073
:101F500001F00041704781EA030100F057B9F0BC7D
:101F6000BDE800414FF0000021497047FFFDFBF93B
:101F7000F7F5F4F2F0EEEDEBE9E8E6E4E3E1E0DEBC
:101F8000DDDBDAD8D7D5D4D3D1D0CFCDCCCBCAC82E
:101F9000C7C6C5C4C2C1C0BFBEBDBCBBBAB9B8B755
:101FA000B6B5B4B3B2B1B0AFAEADACABAAA9A8A848
:101FB000A7A6A5A4A3A3A2A1A09F9F9E9D9C9C9B16
:101FC0009A999998979796959594939392919190C1
:101FD0008F8F8E8E8D8C8C8B8B8A89898888878752
:101FE0008685858484838382828181800000FF07C7
:101FF0000000F87FB0FA80F310FA03F10AD0C3F1C1
:102000001D0303F580634FEA41504FEA035202EB90
:10201000D12170474FF0000070470000DFF848C141
:1020200070B51CEA111E1EBF1CEA13159EEA0C0FA8
:1020300095EA0C0F00F06F8081EA030423EA4C1349
:102040004EEAD47E21EA4C1141F4801143F480130E
:10205000AE44A1FB024CA0FB0365AEF17F7E3619B6
:1020600055EB0C05A1FB034C4CF10003A0FB021C3B
:1020700016EB0C06654153F10003094218BF46F008
:10208000010613F4007F0BD14FEA03314FEA05300C
:10209000340341EA155140EA16506FF003020AE09A
:1020A0004FEAC3214FEAC520F40241EA555140EA04
:1020B00056506FF0020202EB2E4201EB025585EA08
:1020C000CE710AD05FEA440C18BF24F0004450F1EE
:1020D000000041F1000120EAD47040F2FE7C62452C
:1020E00000D270BDA84214BF4FF080444FF040446E
:1020F000002E08BF0024BEF1806FA8BFA1F1C0412F
:10210000BDE8704080F282804FF0000001F1C041D4
:1021100001F0004170479EEA0C0F0CEA131518BF3E
:1021200095EA0C0F06D04FF0000081EA030E0EF086
:10213000004170BD00F01CF88900013E00F007B8B6
:1021400000F009B84FEA430C5FEA5C5C08D081EA12
:10215000030100F05BB84FEA410C5FEA5C5CF6D12A
:102160004FF00000014970470000FF070000F87FB2
:102170000EF1020E2EF0030E5EF8046B364205D40B
:10218000012A43EB030515F5001F12D8012841EB86
:10219000010C1CF5001F0CD80ED14FEAD17C15F5AF
:1021A000001F0CEB4C0C0CF1020C08BF4CEBD37C69
:1021B00004E04FF0080C01E04FEAD37C0CEB4C0537
:1021C00026FA05F606F00706B6F1040C06D20EEB69
:1021D000860CBDE870404CF0010C6047DFE80CF065
:1021E000090B02024FF000414FF00000A1F5002161
:1021F00070BD19461046012851EB010418BFD4F5F3
:10220000001484BF002001F0004170BD0808A0F553
:1022100000114FEA31017047FF2141EAD050C0055B
:1022200070470000000000000000010203040607E0
:1022300008090000542200080000002034000000BB
:10224000280100088822000834000020640B0000E8
:1022500044010008320000000000000000000000FF
:10226000000000000000000000000000000000006E
:10227000000000000000000001000000100000004D
:08228000000000000024F4003E
:04000005080000ED02
:00000001FF
