:030000000208AB48
:0C08AB00787FE4F6D8FD75813C0208F26D
:080A4B00C2A68F80D2A77F0331
:100A5300AD071FED600FE4FEEEC3946E74809480C7
:050A630050EE0E80F3CF
:010A6800226B
:08000300C2A5120A4BC2A7229C
:080A8E00D2A5120A4BC2A722F7
:100A69007F011200037F381200037F061200037F03
:070A79000C120003C2A722CA
:020A2600AE0719
:100A2800EEF582758300640170027C80E5826402C1
:100A3800458370027CC0EC2D14FCFF120003AF0349
:030A4800020A8E11
:0209F8008F3B33
:1009FA007E00EF640170027C80EF64024E70027C1C
:100A0A00C0EC2D14FCFF1200031203E4FF600C1269
:0B0A1A000A8E740129F9E43AFA80EE1C
:010A250022AE
:0E0A800061696D2073706565643A2020200066
:1009A100013914013800011600011D00010B640218
:1009B1001B000002140000021E0000010A000410C6
:1009C1004120000004240000000004170000000082
:1009D1000430000000000428000000000434431625
:1009E1000000042C3951B717042045BB8000020ECA
:0609F100000002080000F6
:02093700A9070E
:10093900E4FBEBC39403748094805048E4F53BF5E1
:100949003CAD01D297D295C295C296FAEAFF7E00D4
:10095900C3940C748094805028309303433C01ED78
:10096900339294EF64074E7002D294D296C296EDF8
:1009790025E0FDE53C25E0F53CE53B33F53B0A8008
:10098900CB0B80AED2953097FDE53BC313F53BE524
:070999003C13F53CAE3BFFEF
:0109A0002234
:1007B400C3E509950FFDE508950EFC12032A8F1A6F
:1007C4008E198D188C17AF2BAE2AAD29AC28AB1A15
:1007D400AA19A918A8171200158F2B8E2A8D298CF7
:1007E40028AB2FAA2EA92DA82C120106C004C005DF
:1007F400C006C007AF1AAE19AD18AC17AB37AA368E
:10080400A935A834120106D003D002D001D00012B9
:100814000015C004C005C006C007AB33AA32A93115
:10082400A830AF1AAE19AD18AC17120011AB23AA39
:1008340022A921A820120106D003D002D001D000A1
:100844001200158F278E268D258C24AF1DEF33952E
:10085400E04F701BFFFEFDFCAB27AA26A925A824A8
:100864001202AC4005E4F516801A7516018026E4E0
:10087400FFFEFDFCAB27AA26A925A8241202AC4042
:1008840011751601AF27AE26AD25AC241203638F74
:100894003922E4F516AF27AE26AD25AC2412036346
:0708A400C374FF9FF5392228
:10049600E4F53A758911758AFC758C18D2A9D2AF24
:1004A600C28CD2AF120A697BFF7A0A79807D017FFE
:1004B600011209F8E4FF1209378E0C8F0DD3E50DF2
:1004C6009401E50C94004052753A01E4250DFDE5D2
:1004D6000C34F8FCE412032AE4FBFA794078401263
:1004E6000106E4FBFAF9784512020FE4FBFA7948B3
:1004F6007842120106E4FBFAF9784012020F120361
:10050600638E088F09D3E509945AE50864809480C0
:10051600400B75080075095A8003E4F53AE53A7010
:100526000302061AD28CD2AF7F10120937C3EE949B
:10053600087F104036120937E42FFDEE34F8FCE44C
:1005460012032AE4FBFA79407840120106E4FBFA2A
:10055600F9784512020FE4FBFA794878421201064F
:100566001203638E0E8F0F7B208035120937C3E48A
:100576009FFD74089EFCE412032AE4FBFA79407896
:1005860040120106E4FBFAF9784512020FE4FBFA81
:10059600794878421201061203638E0E8F0F7B2D67
:1005A6007D027F02120A26AE08AF097C037DE8129F
:1005B60003FDEF2430FB7D037F02120A26AE08AF4F
:1005C600097C037DE81203FD7E007F64CFCDCFCE8C
:1005D600CCCE1203FDEF2430FB7D047F02120A26E7
:1005E600AE08AF097C007D641203FD7E007F0ACF52
:1005F600CDCFCECCCE1203FDEF2430FB7D057F029E
:10060600120A26AE08AF097C007D0A1203FDED240E
:1006160030FB802DC28CC2AFC2B1C2B0C2B3C2B66B
:10062600C2B5C2B47B207D037F02120A267B207DE1
:10063600047F02120A267B207D057F02120A267B92
:10064600207D067F02120A267B727D087F02120A2F
:10065600267B707D097F02120A267B6D7D0A7F024A
:10066600120A2620A30630A3FDE4F51D20A40630B9
:10067600A4FD751D01A291E43325E0FFA292E433A7
:10068600FE25E025E02FFFA290E4332FF50A12079E
:04069600B40204BAEC
:03000B0002069A50
:10069A00C0E0C0D0758CFE758A0B051CE51C700283
:1006AA00051BC39464E51B94004006751B00751C6A
:1006BA0000D3E51C9539E51B9400405FE516702AC6
:1006CA00E50A14601814601114601014601A14609A
:1006DA000E1460030207AF8032803A80388022D23B
:1006EA00B1C2B0C2B3020791801DE50A14601C149E
:1006FA00601314601214601D14601814600302075A
:10070A00AFC2B1805E8000C2B18062C2B1C2B0D253
:10071A00B380748000C2B1C2B08078E516702EE54D
:10072A000A14601F14601414601714601E146017F2
:10073A00147072C2B1D2B0D2B3804CC2B1D2B080FE
:10074A00528056D2B1801CD2B180228026E50A148A
:10075A00602F14601614601B14603E14603114700C
:10076A0044D2B1C2B0C2B3D2B6801ED2B1C2B0C2F4
:10077A00B38006C2B1C2B0D2B3C2B6C2B5D2B480D7
:10078A0024C2B1D2B0D2B3C2B6C2B5C2B48016C204
:10079A00B1D2B0C2B3C2B68008C2B1C2B0C2B3D27B
:0A07AA00B6D2B5C2B4D0D0D0E03210
:10000E000203CFE86480F8E933E83360110460F04E
:10001E00ED33EC337009E8FCE9FDEAFEEBFF220458
:10002E0060DED3EB9FEA9EE99DE8C2E78CF0C2F753
:10003E0095F0400CE8CCF8E9CDF9EACEFAEBCFFB1F
:10004E0012039A85D0F05804700320D5B3E80470DB
:10005E00075002B2D50203D992D5EC0460F7E4CC76
:10006E00C0E0C398F8603B94186008400DD0E0FBE8
:10007E000203B1E4FBFAC9FC8028E830E406E4C9C7
:10008E00FBE4CAFCE830E305E4C9CACBFCE854073C
:10009E006010F8C3E913F9EA13FAEB13FBEC13FC47
:1000AE00D8F130F52FC3E49CFCEF9BFFEE9AFEEDEA
:1000BE0099FDD0E0FBEF4E4D4C701222DB03020394
:1000CE00D6EC2CFCEF33FFEE33FEED33FDED30E7D7
:1000DE00EB0203B1EF2BFFEE3AFEED39FDD0E0FB64
:1000EE0050130BBB00030203D9ED13FDEE13FEEF0D
:0800FE0013FFEC13FC0203B137
:10010600EC4D6011E8497017ED33EC3304600DE4F3
:10011600FCFFFEFD22E933E8330470F80203CF1238
:10012600039A58046009E4CC248150062850090239
:1001360003D92840030203D6C0E0EB4A7044B980D5
:1001460006D0E0FB0203C5EF4E701CBD8008EBFF36
:10015600EAFEE9FD80EBE98DF0A4FEE5F00201EF91
:10016600E9CDF9EAFEEBFFEF89F0A4FCE5F0CE89D4
:10017600F0A42EFFE435F0CD89F0A42DFEE435F091
:100186008067EF4E7005BD80D780C3EF8BF0A4ACBF
:10019600F0EE8BF0A42CFCE435F0F8EF8AF0A42CFA
:1001A600E5F038FCE433CB8DF0A42CFCE5F03BF80D
:1001B600EE8AF0A42CFCE5F038F8E433CF89F0A4FD
:1001C6002CFCE5F038CF3400CE89F0A42FFFE5F003
:1001D6003EFEE433C98DF0A42EFEE5F039CD8AF05B
:1001E600A42FFFE5F03EFEE43DFD33D0E0FB5007D3
:1001F6000BBB000F0203D9EC2CFCEF33FFEE33FEF2
:06020600ED33FD0203B11F
:10020C000203D9EC5D046005E8590470030203CFC6
:10021C0012039A580460F6EC4860F2EC7004FDFE90
:10022C00FF22C860DB2481C85009C39860025006C5
:10023C000203D69850CAF582E9294B4A7005AB8265
:10024C000203C575F0007C1A7880C3EF9BEE9AED23
:10025C0099400DC3EF9BFFEE9AFEED99FDE842F03D
:10026C00DC23ACF0D0E0FFD0E0FED0E0FDAB822090
:10027C00E7101BEB60BAEC2CFCEF33FFEE33FEED1A
:10028C0033FD0203B1E803F830E705C0F075F00068
:10029C00EF2FFFEE33FEED33FD40B830E7C280AAFE
:1002AC0074F8CC6480CCC86480C8F58204604FC3F9
:1002BC00EB9FF5F0EA9E42F0E99D42F0E89C45F098
:1002CC00603C501DE5825FFFE582D313CB5BCBF422
:1002DC002B5582FB50280ABA002409B9002008804B
:1002EC001DE5825BFBE582D313CF5FCFF4C3132FE5
:1002FC005582FF50090EBE00050DBD00010CC3EB6D
:10030C009FF5F0EA9E42F0E99D42F0E89C45F060D2
:09031C0007CC4820E701B3EC22F4
:1003250075F020800E75F010800575F0087D007E53
:10033500007F003392D530D503120433EC334010DF
:10034500EF33FFEE33FEED33FDEC33FCD5F0ED225C
:0E035500E5F0247EA2D513CC92E7CDCEFF2298
:10036300EDD2E7CD33EC3392D524814006E4FFFE92
:10037300FDFC22FCE4CFCECDCC24E0501174FF80F1
:10038300EDC3CC13CCCD13CDCE13CECF13CF04708E
:07039300F030D5DE02043357
:10039A00E9D2E7C933E833F892D5EDD2E7CD33ECA9
:0703AA0033FC5002B2D52222
:1003B100EC30E7100FBF000C0EBE00080DBD0004AD
:1003C1000BEB6014A2D5EB13FCED92E7FD2274FF59
:1003D100FCFDFEFF22E480F8A2D574FF13FC7D80B2
:0303E100E480EFC6
:1008B700020496E493A3F8E493A34003F68001F2BD
:1008C70008DFF48029E493A3F85407240CC8C33342
:1008D700C4540F4420C8834004F456800146F6DF11
:1008E700E4800B01020408102040809009A1E47EF7
:1008F700019360BCA3FF543F30E509541FFEE49306
:10090700A360010ECF54C025E060A840B8E493A3CC
:10091700FAE493A3F8E493A3C8C582C8CAC583CAF7
:10092700F0A3C8C582C8CAC583CADFE9DEE780BEAF
:0109F70000FF
:1003E400BB010689828A83E0225002E722BBFE0217
:0903F400E32289828A83E493224A
:1003FD00C2D5EC30E709B2D5E4C39DFDE49CFCEE1B
:10040D0030E715B2D5E4C39FFFE49EFE120441C34D
:10041D00E49DFDE49CFC800312044130D507C3E448
:06042D009FFFE49EFE2289
:0E043300C3E49FFFE49EFEE49DFDE49CFC22DA
:10044100BC000BBE0029EF8DF084FFADF022E4CC9F
:10045100F875F008EF2FFFEE33FEEC33FCEE9DEC68
:10046100984005FCEE9DFE0FD5F0E9E4CEFD22EDAE
:10047100F8F5F0EE8420D21CFEADF075F008EF2FF8
:10048100FFED33FD4007985006D5F0F222C398FDE9
:050491000FD5F0EA2286
:00000001FF
